:100000000C9434000C943E000C943E000C943E0082
:100010000C943E000C943E000C943E000C943E0068
:100020000C943E000C943E000C943E000C943E0058
:100030000C943E000C943E000C943E000C943E0048
:100040000C943E000C943E000C943E000C943E0038
:100050000C943E000C943E000C943E000C943E0028
:100060000C943E000C943E0011241FBECFEFD8E04C
:10007000DEBFCDBF0E9440000C94C7000C9400006E
:100080008AB188638AB98BB188638BB98BB1846C70
:100090008BB985B1836085B940E097E080E757E090
:1000A00056C04A9B5AC080FF58C06BC04E9B5BC075
:1000B00081FF59C06AC02BB1277C2BB94BB1292FC6
:1000C000092E000C330B20953095220F331F220F81
:1000D000331F220F331F2873242B2BB9915040E07C
:1000E00083FF2BC029B193B133B122952695277098
:1000F0002470990F9270292B31FB992790F9292BA5
:10010000252760E12602900111242F60806F822351
:10011000982F92959F702BB1277C2BB96BB1292F0B
:10012000092E000C330B20953095220F331F220F20
:10013000331F220F331F262B2BB94F5F2FEF31EECA
:1001400064E0215030406040E1F700C000004A996F
:10015000A8CF80FD14C0877F85604E99A7CF81FD11
:1001600012C08B7F8A6082FFBBCF4A300CF4B8CFBD
:1001700099230CF0A0CF982F92959F709CCF4A9B0B
:10018000ECCF8E7FEACF4E9BEECF8D7FECCFF894F5
:02019000FFCF9F
:00000001FF
