:100000000C9434000C943E000C943E000C943E0082
:100010000C943E000C943E000C943E000C943E0068
:100020000C943E000C943E000C943E000C943E0058
:100030000C943E000C943E000C943E000C943E0048
:100040000C943E000C943E000C943E000C943E0038
:100050000C943E000C943E000C943E000C943E0028
:100060000C943E000C943E0011241FBECFEFD8E04C
:10007000DEBFCDBF0E9440000C9463000C940000D2
:100080008AB188638AB98BB188638BB927E08BB159
:10009000877C8BB93BB1822F90E080959095880F3B
:1000A000991F880F991F880F991F8877832B8BB909
:1000B00021503FEF83ED90E3315080409040E1F7D5
:0A00C00000C00000E4CFF894FFCF69
:00000001FF
